:020000040800F2
:10000000E0060020350200083D0200083F0200081B
:1000100041020008430200084502000800000000F9
:10002000000000000000000000000000470200087F
:1000300049020008000000004B020008D11C000823
:100040004F0200084F0200084F0200084F0200084C
:100050004F0200084F020008751300084F02000805
:100060004F0200084F0200084F0200084F0200082C
:100070004F0200084F0200084F0200084F0200081C
:100080004F0200084F0200084F0200084F0200080C
:100090004F0200084F0200084F0200084F020008FC
:1000A0004F0200084F0200084F0200084F020008EC
:1000B0004F0200084F0200084F0200084F020008DC
:1000C0004F0200084F0200084F0200084F020008CC
:1000D0004F0200084F0200084F0200084F020008BC
:1000E0004F0200084F0200084F02000800F002F81B
:1000F00000F090F80AA090E8000C82448344AAF132
:100100000107DA4501D100F085F8AFF2090EBAE82F
:100110000F0013F0010F18BFFB1A43F0010318473B
:100120001035000030350000103A24BF78C878C17F
:10013000FAD8520724BF30C830C144BF04680C60ED
:10014000704700000023002400250026103A28BF35
:1001500078C1FBD8520728BF30C148BF0B60704739
:100160006E2900F03F81702900F08182662903F03A
:10017000AA81652903F0A781672903F0A481612979
:1001800003F0A38103681B0A28BF41F0800169299D
:1001900000F0EC80642900F0E980752900F0E68029
:1001A0006F2900F00F82782900F04D82E92900F0D4
:1001B000A981E42900F0A681F52900F0A381EF29A7
:1001C00000F00C82F82900F04C820368DB0928BF9C
:1001D00041F08001632900F04D87732900F05287B8
:1001E000E32900F05D87F32900F062870020704763
:1001F0001FB500F0B3FF04000020002102F066FDEF
:10020000401C60600020002102F04AFDE0601FBD3C
:1002100010B510BD00F074FF1146FFF7E9FF02F0C2
:100220001DF801F051F803B4FFF7F2FF03BC01F031
:1002300099F800000948804709480047FEE7FEE7B3
:10024000FEE7FEE7FEE7FEE7FEE7FEE7FEE7FEE786
:1002500004480549054A064B70470000051E000882
:10026000ED000008E0000020E0060020E002002091
:10027000E00200200FB41CB5084B06AA7B44694677
:100280000090059800F0C7F804460020694600F089
:10029000D5F820461CBC5DF814FB0000BD01000031
:1002A00070477047704770B5044685690068C1069D
:1002B00001D5302600E02026C00707D070BDD4E964
:1002C000012130469047206A401C20626D1EF6D501
:1002D00070BD70B5044685690078C00707D170BD50
:1002E000D4E9012120209047206A401C20626D1E25
:1002F000F6D570BD09684A0501D540B27047C905F9
:10030000FCD500B2704709684A0501D5C0B27047F4
:10031000C905FCD580B2704770B50C460546012A68
:1003200005D02878800600D5EA69002302E0012381
:1003300005E05B1C934202D2E05C0028F9D1A86979
:10034000E618C01AA861286A184428622846FFF7F0
:10035000AAFF04E0D5E9012114F8010B9047B4424B
:10036000F8D32846FFF7B5FF70BD00002DE9F04136
:100370000646002410687529314616A510D0FFF7EF
:10038000B9FF002802DA404213A507E031688A0766
:1003900001D512A502E0490704D511A5012401E009
:1003A000FFF7B1FF00210A2206F1240709E0B0FBA4
:1003B000F2FCB0FBF2F302FB1C003030785418461C
:1003C000491C0028F3D123462A463046BDE8F041B7
:1003D00000F061BA000000002D0000002B000000BA
:1003E0002000000011680268006A530501D50870FA
:1003F0000AE0D30501D5088006E0130603D5C2172D
:10040000C1E9000200E008600120704701694A1C50
:1004100002610878704700B58FB0CDE90131002145
:10042000059105497944CDE903101146684600F06D
:1004300029F90FB000BD0000E5FFFFFF0A6802F8D0
:10044000010B0A60704700002DE9FF5F15468A46E0
:100450000446DFF8AC80F8440027D8E900103E4697
:10046000CDE9001010E03AF816106A4602A800F034
:1004700023FE411C07D02178890603D5E26939188B
:1004800091420DD80744761C2078800602D5E06999
:10049000B84205DDAE42E6DB3AF816000028E2D1AC
:1004A000A069C01BA0612046FFF7FDFED8E900103F
:1004B000CDE90010002017E03AF818106A4602A8AB
:1004C00000F0FAFDB0F1FF3F81460BD000250DF1A1
:1004D000080B05E0D4E901211BF8050090476D1CCD
:1004E0004D45F7D308F10100B0428046E4DB206AB5
:1004F000384420622046FFF7ECFEBDE8FF9F000075
:10050000763000002DE9F0418046D21D22F007022E
:100510000025D2E90002F52915A614D0011E72F1BA
:10052000000106DA0023D0EB030063EB020211A600
:1005300008E0D8F800108B0701D50FA602E04907A4
:1005400001D50EA601251146002408F1240704E078
:1005500000F05CF930323A55641C50EA0102F7D1E0
:100560002B46324621464046BDE8F04100F093B9A3
:10057000000000002D0000002B0000002000000003
:1005800030B4002100F1240408E002F00705D2088D
:10059000303542EA4372DB086554491C52EA0305D0
:1005A000F3D10468002310A2250708D504F0200425
:1005B0000C4304D0C46901230CA2641EC46130BC86
:1005C00000F069B910B5044621461068FFF79BFE9C
:1005D00002462046BDE810400023D1E7D21D22F09C
:1005E0000701D1E90023CBE7000000003000000044
:1005F000F0B40D460188090502D5214C7C4402E087
:100600001F4C7C440E34002100F1240608E002F067
:100610000F071209E75D42EA03721B097754491C70
:1006200052EA0307F3D102780023120704D5702D94
:1006300006D009B1022311342246F0BC00F02BB9D8
:1006400001231034F8E770B504460D4621461068C2
:10065000FFF759FE024629462046BDE870400023B8
:10066000C6E7D21D22F00703D3E90023C0E70368E1
:10067000126843F0200303600823C3610023B7E737
:10068000D82E00002DE9F05F894604464FF0000A9D
:10069000DFF874B1FB44C0F820A02046E168884729
:1006A000002874D0252806D0D4E901219047206A7B
:1006B000401C2062F1E700265F462046E16888473B
:1006C0002028054607DB312D05D2781910F8200CBB
:1006D00008B10643F1E7B00701D526F00406C4F8D7
:1006E0001CA00027C4F818A02A2D09D0284602F023
:1006F000CFFA38B304EB8708303DC8F8185019E03A
:1007000059F8041B204604EB87029161E168884791
:10071000012F054618D1E069002820DA26F02006CE
:100720001DE0D8F8180000EB800005EB40003038E1
:10073000C8F818002046E1688847054602F0A8FA84
:100740000028EED1012F0AD02E2D08D12046E168D5
:1007500088477F1C0546022F46F02006C4DBA069AF
:10076000002803DA404246F00106A061F00701D0FC
:1007700026F010066C2D0BD0682D09D04C2D39D0E9
:100780006A2D35D0742D35D07A2D33D016E038E06F
:10079000E1682F4620468847B842054609D16C2FAC
:1007A00026D04FF48060E16806432046884705461E
:1007B00004E06C2F1AD04FF4807006430DB3A5F1FE
:1007C0004100192802D8203546F400664A462946D9
:1007D000204626604E46FFF7C3FC80B101280BD0AF
:1007E000F61D26F0070000F1080956E74020E4E76F
:1007F0008020D8E70020D6E706F104094DE7284617
:1008000052E7206ABDE8F09F682E000030B5B0F1D5
:100810000A0271F100034FEA900E4EEA817EB0EBBE
:100820000E0061EB91014FEA101E4EEA017E10EBC3
:100830000E0041EB11114FEA102E4EEA016E10EB43
:100840000E0041EB11214FEA104E4EEA014E10EB23
:100850000E0041EB1141401841F100014FEAD00078
:1008600040EA41704FEAD1014FEA810444EA9074B2
:1008700010EB800544EB01046D1944EB0404521B9A
:10088000A3414FF0000348BF0A3200D530BD401CE1
:1008900041F1000130BD2DE9F0470D4699469246E1
:1008A000044600F124080168880604D5E06921F0B7
:1008B0001001216000E00120A84201DD471B00E09B
:1008C0000027A1697A1902EB0900081AA0612078B3
:1008D000C00602D42046FFF7E6FC002608E0D4E973
:1008E00001211AF806009047206A401C761C2062FD
:1008F0004E45F4DB2078C0060AD52046FFF7D3FC2E
:1009000006E0D4E9012130209047206A401C206293
:10091000381EA7F10107F4DC07E0D4E9012118F83B
:1009200005009047206A401C2062281EA5F10105A1
:10093000F3DC2046FFF7CDFC2078000602D502202C
:10094000BDE8F0870120FBE72DE9FF4F0C461E466E
:100950004FF0FF378BB0D2E90001DDF860800A90DC
:100960008A46C1F30A5505B93D46002108464FF0B5
:100970000000BAF1000F00F4400005DA00EB80003F
:100980004FF4400101EA50004FEA9059B9F1010FCC
:1009900000DDB9460A9850EA4A000ED044F61050DD
:1009A000A5F2FF3545432F14B8F1000F1ED0754254
:1009B000291E1EDDC9F100021CE0B8F1010F4FF045
:1009C000000001D0302103E0F24305E02154401C37
:1009D000B042FBDB30460022002121540B99C1F8C4
:1009E0000880C1E900200FB0BDE8F08FBD1B6D1C71
:1009F000DEE74A4600DA694206A800F0F3FB06ABE0
:100A000093E8070003AB83E8070050460A9901F01A
:100A100062FD8DE80700A0F500501F380090039894
:100A2000002D0ADD42F21F014A460844002303A9B3
:100A30000390684601F0CCFF09E0A0F500504A465B
:100A40001F38002303A90390684601F0D6FF8DE804
:100A500007000004000C03D04FF0FF30410800E015
:100A60001046B8F1000F03D00022009215461EE098
:100A7000751E05D4FFF7CAFE303262556D1EF9D5DA
:100A8000B3460122084302D000227F1C04E02078F4
:100A9000302801D100227F1E002A099784D01DE052
:100AA000112D07DAFFF7B2FE303262556D1C50EAA5
:100AB0000102F5D1084302D00098C8B10EE0002130
:100AC000681E05E0235C625C63542254401E491C8E
:100AD0008142F7DBAB46A81B401E0990002004F8BA
:100AE0000B000B98099AC0F80880C0E9002B7AE740
:100AF00011264FF0000857E72DE9F04F88460446CD
:100B0000D21D22F0070191B0D1E90001CDE90A011F
:100B100002F0AAF802460B98C00F01D02D2007E082
:100B20002068810701D52B2002E0202101EAC000C6
:100B3000032A099001D0072A05DB034641462046D7
:100B400000F010FB0BE12078800601D5E06900E0A1
:100B50000620B8F1650F814606D0B8F1660F18D0AF
:100B6000B8F1670F70D131E00020B9F1110F00909A
:100B700001DB112301E009F101030AAA01A90CA874
:100B8000FFF7E2FEDDE90C70002609F1010583465E
:100B900047E001204B4600904FF000470AAA01A908
:100BA0000CA8FFF7D1FEDDE90DB00C995D460026DB
:100BB00010B909F101000D18B9EB050003D4C0F11B
:100BC000FF3609F10105A5EB09002BE0B9F1010F92
:100BD00001DA4FF001090020B9F1110F00904846E9
:100BE00001DD112300E003460AAA01A90CA8FFF7C2
:100BF000ABFEDDE90C704D460026834620780007E9
:100C00000AD4AB4500DA5D4601A8012D04DD411987
:100C100011F8011C302907D04F4502DA17F1040FF3
:100C200004DA012082460FE06D1EEEE7002F02DCA1
:100C3000ED1B3E4403E0781CA84200DD7D1CB81B80
:100C400000F1010A4FF000472078000703D4AA45BD
:100C500001DB4FF0FF3A0021B7F1004F0DF14308DF
:100C60008DF8431024D002202B23002F01DA7F427D
:100C70002D230A21021EA0F1010000DC5FB197FBC9
:100C8000F1FC97FBF1F201FB1C7C17460CF1300CD8
:100C900008F801CDEEE7A8F10100037021880905ED
:100CA00001D5452100E06521A0F1010800F8011CF3
:100CB00009980FA9A1EB0807FF1D00B101204119F8
:100CC00001EBEA70A1693844081A401EA06120783F
:100CD000C00602D42046FFF7E6FA099828B1D4E905
:100CE00001219047206A401C20622078C00622D54E
:100CF0002046FFF7D8FA1EE0002E04DBB34502DDE4
:100D000001A8805D00E03020D4E901219047206AED
:100D1000401C2062761CAAF101005FEA000A0AD199
:100D200000F01CFAC0680168405CD4E901219047DA
:100D3000206A401C2062281EA5F10105DCDC07E0CA
:100D4000D4E9012118F8010B9047206A401C206269
:100D5000381EA7F10107F3DC2046FFF7BAFA03209B
:100D600011B041E62DE9F04F04460D46D21D22F0A8
:100D7000070089B0D0E900974846394601F074FF72
:100D80000246F80F01D02D2307E02068810701D526
:100D90002B2302E0202101EAC0038DF820300BB1A3
:100DA000012000E00020032A824601D0072A04DB4C
:100DB0002946204600F0D6F93FE12078800601D48C
:100DC0000D2500E0E569C7F30A560D2D49DA00212B
:100DD0004FEA175B08464FF00000002F00F4400078
:100DE00007DA00EB80004FF4400100EBD07001EA1D
:100DF00060008115012901DD4FF0FF3100224FEA2B
:100E0000850CBCF1180F06D31346ACF118004FF057
:100E10008052C24003E04FF4801323FA0CF30CF12C
:100E20000C0CBCF1200F04D3ACF1200C09FA0CF02F
:100E300001E007FA0CF000294FF0004801DD18B975
:100E40000FE00ED140450CD319EB02095F4121B9E7
:100E5000404502D19F4329EA0209BBEB175F00D04E
:100E6000761C2088000502D57B48784402E07A4849
:100E70007844193808AA302302F80A30037C0AF1B2
:100E80000101002E0AF1020A53546A4602DC4FF0B7
:100E9000300101E04FF031014FF001088DF80010F2
:100EA00002D0A6F2FF3603E059EA470100D06B4EAC
:100EB000002D02DC2178090704D54FF002082E210D
:100EC0008DF80110C44600210BE0C7F303433F0136
:100ED000C35C491C6D1E02F80830052908F10108A1
:100EE00001DA002DF1DC00210CE000EB1973491C44
:100EF0001B786D1E082902F808304FEA091908F11D
:100F0000010801DA002DF0DC21688B0602D516E01D
:100F1000A8F10108E04505DD02EB080313F8013CE8
:100F2000302BF5D0B8F1000F09DD02EB080313F800
:100F3000013C2E2B03D1090701D4A8F10108002D93
:100F400005DD3E2102F808106D1E08F10108407C05
:100F5000002E02F8080008F1010804DA2D2076427C
:100F600002F8080002E02B2002F808000A214FF4E2
:100F70007A70864208F101080BDB96FBF0F3303300
:100F800002F8083096FBF0F308F1010800FB136645
:100F900001E0642E0CDB642096FBF0F3303302F8A2
:100FA000083096FBF0F308F1010800FB136601E03E
:100FB0000A2E06DB96FBF1F0303002F8080008F14B
:100FC000010896FBF1F001FB1060303002F80800D8
:100FD000A16908F1010808EB050202EB0A00081AF2
:100FE000A0612078C00602D42046FFF75CF9216A90
:100FF00008AE01EB0A00206204E0D4E9012116F8F2
:10100000010B9047BAF1010AF7D22078C00602D549
:101010002046FFF748F96E4609E016F8010B3E2816
:101020000FD0D4E901219047206A401C2062B8F11A
:101030000108F2D22046FFF74CF909B00320BDE8C1
:10104000F08F206A2844206203E0D4E90121302097
:1010500090476D1EEBD3F8E7B626000002FCFFFFB9
:1010600010B5436913B1AFF3008001E0FFF754F905
:10107000012010BD127800F124010A7000224A708C
:101080000122EDE711684FF0FF32E9E710B543693F
:1010900013B1AFF3008001E0FFF7D6F9012010BDD6
:1010A000128800F1240182840022C2840122EDE72B
:1010B00011684FF0FF32E9E72DE9F04116460C4682
:1010C000054600F043F8036893F80101012807D0B2
:1010D000FF2C12D8185D80B101202C70BDE8F08182
:1010E000D3F807013246214603F20713C7182846F2
:1010F000BC46BDE8F041002360474FF0FF30EDE70C
:10110000754600F0EBF8AE4605006946534620F000
:101110000700854618B020B5FFF79AF8BDE82040D3
:101120004FF000064FF000074FF000084FF0000BA3
:10113000AC46ACE8C009ACE8C009ACE8C009ACE812
:10114000C00921F007018D467047000010B500F07E
:1011500005F8001D10BD00BF751B0000004870475A
:10116000280000202DE9F0411F46044603260168AF
:10117000072A01F4006004DB08B116A505E016A5F6
:1011800003E008B115A500E015A521F010002060CE
:10119000A069C01EA0610FB1401EA0612046FFF7EC
:1011A00082F84FB1D4E9012138469047206A401CAB
:1011B0002062C01C206206E0206AFAE7D4E901211F
:1011C00015F8010B9047761EF8D22046FFF781F8FC
:1011D000BDE8F0814E414E006E616E00494E460002
:1011E000696E66002DE9F047814616468AB035489B
:1011F00078440DC88DE80D0032487844801C03AC5B
:101200000DC884E80D0041F69B300844372190FB5F
:10121000F1F290FBF1F5A5F1800501FB12041B3CF6
:1012200002D56442012000E00020DFF898A080464B
:101230000027FA44AAF1BE0A0EE0E0070AD03246BF
:10124000684607EB470101230AEB810101F0D5FB5A
:101250008DE8070064107F1C002CEED1194F7F44ED
:10126000AE3F19E0E80715D007EB04100DF1180A9E
:1012700090E80E008AE80E00C068F04201D198198B
:1012800008903246012306A903A801F0B6FB03AB80
:1012900083E807006D10641C002DE3D14FF00103BB
:1012A00032466946B8F1000F03A802D001F090FB66
:1012B00001E001F0A2FBC9E90001C9F808200AB069
:1012C000BDE8F087C023000010B50446AFF30080EE
:1012D0002046BDE81040FEF7A6BF0000004870475A
:1012E000080000204FF0013C50F8042B51F8043B5B
:1012F0009A4221D1A2EB0C03934313EACC1317D1EA
:1013000050F8042B51F8043B9A4215D1A2EB0C0380
:10131000934313EACC130BD150F8042B51F8043B40
:101320009A4209D1A2EB0C03934313EACC13DBD00E
:101330004FF00000704700BFD01A01BAB1FA81F136
:1013400001F0180122FA01F0CB40DBB2C0B2C01AA2
:10135000C1F120012CFA01F3D11A914311EAC31112
:10136000E6D1704701491820ABBEFEE72600020017
:101370007047000080B582B072B6012000F03EF8E0
:1013800078B3FFE740F60040C4F20100012100F00D
:1013900039FF10B3FFE740F60C41C4F201010868C1
:1013A00080F44040086040F26801C2F20001087811
:1013B0000130087040F2DC00C2F2000001900068C9
:1013C00040F2CC01C2F20001086001F029F8019955
:1013D0000860322001F060F8FFE7012000F004F817
:1013E000FFE762B602B080BD81B00090009840F285
:1013F0001441C4F20101086001B0704783B002904B
:1014000000208DF80700009040F20040C4F2010077
:10141000006802990840009040F21440C4F20100B4
:1014200000680299084207D0FFE7009820B1FFE763
:1014300001208DF8070003E000208DF80700FFE78A
:101440009DF8070003B0704782B001900020009023
:1014500040F20040C4F20100009001988079002819
:1014600059D0FFE70198026840F20041C4F201013F
:101470000868904308600198026840F20441C4F291
:1014800001010868904308600198017900980844B8
:10149000009001980268009908681043086001985C
:1014A000026840F20841C4F20101086890430860F4
:1014B0000198026840F20C41C4F2010108689043AF
:1014C000086001984079102813D1FFE7019802685D
:1014D00040F20841C4F20101086810430860019815
:1014E000026840F20C41C4F2010108681043086030
:1014F00010E040F20040C4F20100009001984179F0
:101500000098084400900198026800990868104308
:101510000860FFE70BE0019801790098084400900B
:10152000019802680099086890430860FFE702B0DC
:101530007047000082B08DF807008DF8061000207B
:1015400000909DF8060000F0030081000F20884005
:101550000090009B9DF8060000F0FC010822C4F2F8
:1015600001028858984388509DF807109DF806009E
:1015700000F003039B0001FA03F300F0FC0188581C
:101580001843885002B0704788B007900691002039
:101590000590049003900290019000900698C07806
:1015A00000F00F0005900698C078C006002806D508
:1015B000FFE706988178059808430590FFE70698AD
:1015C000007800284BD0FFE70798006801900020C2
:1015D0000390FFE7039807283DD8FFE70399012010
:1015E0008840029006980088029908400490049868
:1015F000029988422AD1FFE703988000029002995D
:101600000F20884000900099019888430190059828
:10161000029900FA01F10198084301900698C078F8
:10162000282806D1FFE703990120884007994861DF
:101630000BE00698C078482806D1FFE703990120FF
:10164000884007990861FFE7FFE7FFE7FFE7039896
:1016500001300390BEE7019807990860FFE70698FC
:101660000088B0F5807F50DBFFE707984068019065
:1016700000200390FFE70398072842D8FFE703986C
:1016800000F1080101208840029006980088029924
:10169000084004900498029988422DD1FFE70398EE
:1016A0008000029002990F208840009000990198D4
:1016B000884301900598029900FA01F101980843C6
:1016C00001900698C078282808D1FFE7039800F118
:1016D00008010120884007994861FFE70698C07813
:1016E000482808D1FFE7039800F10801012088404D
:1016F00007990861FFE7FFE7FFE7039801300390D0
:10170000B9E7019807994860FFE708B07047000003
:1017100082B00190ADF8021000208DF80100019810
:101720008068BDF80210084204D0FFE701208DF860
:10173000010003E000208DF80100FFE79DF80100A3
:1017400002B0704784B003900020029001900F20F7
:1017500000900398C078C0B3FFE74EF60C50CEF26D
:1017600000000068C043C0F3022002900298C0F15C
:101770000400019000980299C840009003984078B6
:10178000019988400290039880780099014002985E
:101790000843029002980001029002980399097888
:1017A0004EF20042CEF2000288540398027802F012
:1017B0001F01012088404EF20011CEF2000141EAE3
:1017C000D20121F0030108600FE00398027802F0D3
:1017D0001F01012088404EF28011CEF2000141EA43
:1017E000D20121F003010860FFE704B07047000058
:1017F00082B001908DF803109DF8030048B1FFE717
:10180000019A41F21C01C4F2020108681043086009
:1018100008E0019A41F21C01C4F2020108689043F9
:101820000860FFE702B0704782B001908DF80310A6
:101830009DF8030048B1FFE7019A41F21801C4F294
:10184000020108681043086008E0019A41F218019B
:10185000C4F20201086890430860FFE702B07047D5
:1018600086B005900020049003900290019041F210
:101870000400C4F20200006800F00C000490049818
:10188000009040B1FFE7009804280BD0FFE70098D4
:1018900008280ED047E0059941F20020C0F27A00F6
:1018A000086047E0059941F20020C0F27A00086024
:1018B00040E041F20400C4F20200016801F470113A
:1018C0000391006800F4803002900399022000EB3D
:1018D00091400390029848B9FFE7039840F6001141
:1018E000C0F23D014843059908601BE041F2040045
:1018F000C4F2020000688003002809D5FFE70398BE
:1019000040F60011C0F23D0148430599086008E027
:10191000039841F20021C0F27A014843059908601A
:10192000FFE7FFE706E0059941F20020C0F27A00E8
:101930000860FFE741F20400C4F20200016801F010
:10194000F0010491049909090491049A43F2E051C9
:10195000C0F600018A5C0192059B1A68DDF804C09C
:1019600022FA0CF25A60026802F4E0620492049ACD
:10197000120A0492049A8A5C0192059B5A68DDF867
:1019800004C022FA0CF29A60026802F460520492D7
:10199000049AD20A0492049A895C0191059A5168CA
:1019A000019BD940D160006800F440400490049845
:1019B000800B0490049943F2CC50C0F60000405CC8
:1019C00001900599C868019AB0FBF2F0086106B071
:1019D0007047000080B500F001F880BD84B00020A1
:1019E0000390029041F20001C4F20201086840F441
:1019F00080300860FFE741F20000C4F20200006896
:101A000000F400300290039801300390FFE7029940
:101A10000020019039B9FFE70398B0F5A06018BF26
:101A200001200190FFE70198C0070028E3D1FFE7FC
:101A300041F20000C4F2020000688003002803D5D0
:101A4000FFE70120029002E000200290FFE70298E9
:101A5000012851D1FFE742F20001C4F202010868F7
:101A600040F010000860086820F00700086008686F
:101A700040F00200086041F20401C4F2020100914A
:101A80000868086008680860086840F480600860BA
:101A9000086820F47C100860086840F4E8100860CA
:101AA00041F20001C4F20201086840F08070086051
:101AB000FFE741F20000C4F2020000688001002844
:101AC00001D4FFE7F5E741F20401C4F2020108681E
:101AD00020F003000860086840F002000860FFE79B
:101AE00041F20400C4F20200006800F00C00082873
:101AF00001D0FFE7F4E700E0FFE704B07047000023
:101B000080B596B00820079001210591FFF78CFE63
:101B1000059848218DF85710ADF8540040F6004064
:101B2000C4F20100009015A90A91FFF72DFD00985D
:101B3000059A0A9910238DF857304FF47043ADF889
:101B400054308DF85620FFF71FFD05990846FFF722
:101B50006BFE059800210391FFF7ECFC03980599B3
:101B600013918DF852108DF850000C2002908DF8D2
:101B7000510013A8FFF768FC0398059906228DF819
:101B800048208DF84B108DF849008DF84A0012A8B6
:101B9000FFF7D8FD05990846FFF72AFE0398059937
:101BA000ADF84210ADF83E0040F69F70ADF8400031
:101BB00040F60F60ADF83C004FF0804001900FA957
:101BC00000F06AF90198059900F050F905994FF471
:101BD0000030FFF70DFE029903984FF4E1320B92AB
:101BE000ADF83800ADF83610ADF83400ADF832007D
:101BF000ADF8300044F20040C4F2000004900BA99C
:101C000000F024FA0498059900F0E8F905990420F9
:101C10000690FFF709FE06980A9918228DF85720BA
:101C2000ADF85400022008908DF8560040F60000F0
:101C3000C4F201000990FFF7A7FCDDF818C0079B6C
:101C4000089A09980A998DF857C0ADF854308DF864
:101C50005620FFF799FC00F043F840F20000C2F272
:101C60000000006844F6D351C1F26201A0FB0110EC
:101C7000800900F003F816B080BD000080B582B086
:101C8000009000980138B0F1807F03D3FFE7012076
:101C9000019019E0009801384EF21401CEF20001D3
:101CA00008604FF0FF300F2100F08AFA4EF2180161
:101CB000CEF20001002008604EF21002CEF20002C7
:101CC000072111600190FFE7019802B080BD00007C
:101CD00040F27801C2F200010868013008607047E4
:101CE00084B0002003900290019041F20400C4F2FD
:101CF0000200006800F00C0003900398009040B1CF
:101D0000FFE7009804280ED0FFE70098082814D0B9
:101D100056E040F20001C2F2000141F20020C0F2A0
:101D20007A00086056E040F20001C2F2000141F280
:101D30000020C0F27A0008604CE041F20400C4F2D6
:101D40000200016801F470110291006800F4803013
:101D500001900299022000EB91400290019860B935
:101D6000FFE7029840F60011C0F23D01484340F2FF
:101D70000001C2F20001086021E041F20400C4F257
:101D800002000068800300280CD5FFE7029840F6A7
:101D90000011C0F23D01484340F20001C2F20001CF
:101DA00008600BE0029841F20021C0F27A0148433A
:101DB00040F20001C2F200010860FFE7FFE709E01E
:101DC00040F20001C2F2000141F20020C0F27A00AC
:101DD0000860FFE741F20400C4F202000068C0B2EC
:101DE000010943F2D050C0F60000405C0390039A12
:101DF00040F20001C2F200010868D040086004B05F
:101E00007047000080B541F20002C4F2020210687F
:101E100040F00100106041F20401C4F202010868C0
:101E20000023CFF6FF031840086010684FF6FF73D9
:101E3000CFF6F66318401060106820F48020106020
:101E4000086820F4FE00086041F20801C4F20201B3
:101E50004FF41F000860FFF7BDFD4EF60851CEF2AB
:101E600000014FF00060086080BD000082B001906A
:101E70008DF803109DF8030030B1FFE70199088841
:101E800040F00100088005E00199088820F0010079
:101E90000880FFE702B0704783B0029001910020F4
:101EA000ADF8020002980088ADF80200029842F6F0
:101EB0000041C4F20101884225D0FFE7029843F2B5
:101EC0000041C4F2010188421DD0FFE70298B0F141
:101ED000804F18D0FFE7029840F20041C4F20001A1
:101EE000884210D0FFE7029840F60001C4F20001DA
:101EF000884208D0FFE7029840F60041C4F2000192
:101F000088420ED1FFE7BDF8020020F07000ADF866
:101F1000020001984188BDF802000843ADF80200B4
:101F2000FFE7029841F20001C4F20001884216D096
:101F3000FFE7029841F20041C4F2000188420ED04E
:101F4000FFE7BDF8020020F44070ADF802000198F0
:101F5000C188BDF802000843ADF80200FFE7BDF8F4
:101F6000020002990880019880880299888501986A
:101F7000008802990885029842F60041C4F20101E6
:101F8000884220D0FFE7029843F20041C4F20101E9
:101F9000884218D0FFE7029844F20001C4F2010120
:101FA000884210D0FFE7029844F20041C4F20101D8
:101FB000884208D0FFE7029844F60001C4F201010C
:101FC000884205D1FFE70198007A02990886FFE769
:101FD00002990120888203B07047000082B001900E
:101FE0008DF803109DF8030030B1FFE7019988894F
:101FF00040F40050888105E00199888920F4005060
:102000008881FFE702B0704782B00190ADF80210FE
:1020100000208DF80100BDF80200B0F5007F01D16D
:10202000FFE7FFE701980088BDF8021008400004B0
:1020300020B1FFE701208DF8010003E000208DF8BA
:102040000100FFE79DF8010002B0704780B58CB039
:102050000B900A9100200990089007900690059037
:102060000A98808908B1FFE7FFE70B9805900B9865
:10207000008A099009984CF6FF71084009900A9867
:10208000C18809980843099009980B9908820B9810
:102090008089099009984EF6F311084009900A9931
:1020A00088880A891043498901430998084309909F
:1020B00009980B9988810B98808A099009984FF6A6
:1020C000FF41084009900A988189099808430990BE
:1020D00009980B9988826846FFF7C2FB059843F67A
:1020E0000001C4F20101884203D1FFE70398089080
:1020F00002E002980890FFE70B988089000400280E
:102100000AD5FFE70898192148430A990968490048
:10211000B0FBF1F0079009E00898192148430A99AB
:1021200009688900B0FBF1F00790FFE7079848F2D3
:102130001F51C5F2EB11A0FB01016FF00F0000EA87
:1021400051000990079A09980009642100FB1120A9
:1021500006900B9880890004002810D5FFE70699A7
:10216000322000EBC10048F21F51C5F2EB11A0FB79
:102170000110C0F342110998084309900FE0069935
:10218000322000EB011048F21F51C5F2EB11A0FB09
:102190000110C0F34311099808430990FFE709981B
:1021A0000B9908810CB080BD82B00190ADF802108F
:1021B000BDF802006FF35F200199888002B070477C
:1021C00082B08DF8070000919DF9070000280AD41D
:1021D000FFE7009800019DF907104EF20042CEF291
:1021E000000288540BE0009800019DF8071001F0F0
:1021F0000F014EF61452CEF200028854FFE702B0EF
:102200007047000080B584B00290ADF806100298C7
:10221000BDF80610FFF77CFA8DF8050040F26C005F
:10222000C2F2000002889DF80510B1FA81F1490957
:1022300041EA420141F4604101800088B0F5704FED
:1022400004D1FFE701208DF80F0003E000208DF896
:102250000F00FFE79DF80F0004B080BDB0B594B04B
:10226000002011901390FFF74BFC11981290FFE79C
:1022700000F0D6F81299401AB0F5FA7F0CD9FFE7B2
:1022800040F60C41C4F20101086880F40050086077
:1022900000F0C6F81290FFE740F26800C2F20000BA
:1022A0000078002800F0A780FFE740F26A01C2F240
:1022B000000108880130088040F2DC00C2F2000012
:1022C000006840F2CC01C2F200010968401A00F136
:1022D000320140F2D800C2F2000001600068C0B1D3
:1022E000FFE740F2D800C2F20000006800F090FE64
:1022F00002460B46002044F20001C4F2AF0100F098
:102300002DFD00F0F9FC40F2D001C2F2000108609E
:10231000FFE740F27000C2F20000079040F2D001E7
:10232000C2F2000108910968006800F065F8079A98
:10233000014608981160006800F07CFF4CF6CD4221
:10234000CCF6CC424CF6CC43C4F20C0300F074FE45
:1023500000F0D2FC40F2D401C2F200010991086001
:1023600040F27400C2F200000A900968006800F0B0
:1023700043F80A9A014608981160006800F05AFF75
:10238000024609980C920D9140F26A01C2F20001D6
:1023900009880F91006800F04DFF02460A980B92E1
:1023A0000E91006800F046FFDDF82CC00C9A0D9BE2
:1023B000DDF838E004460F980D4669464D610C6122
:1023C000C1F80CE0C1F808C0086040F27C00C2F21D
:1023D0000000109043F2F051C0F60001FDF74AFFF3
:1023E000109800F023F840F26801C2F2000108786A
:1023F00001380870FFE73BE780B584B00390029195
:102400000398029900F05DFF18B9FFE70398019067
:1024100002E002980190FFE7019804B080BD00003F
:1024200040F27800C2F200000068704780B582B0C8
:102430000190FFE744F20040C4F200008021FFF762
:10244000E3FD08B9FFE7F5E7FFE70198007838B149
:10245000FFE70198411C0191007800F003F8F4E7D0
:1024600002B080BD80B582B08DF80700FFE744F26E
:102470000040C4F200008021FFF7C6FD08B9FFE765
:10248000F5E79DF8071044F20040C4F20000FFF7A2
:102490008BFE02B080BD000083B00290002001904E
:1024A000FFE701980299884213D2FFE700200090CD
:1024B000FFE7009842F6FE21884205D8FFE7FFE7D4
:1024C000009801300090F4E7FFE701980130019097
:1024D000E7E703B070475FEA400C08BF91F0000FD8
:1024E0004FEA8C234FEAC12243EA51514FEA1C5074
:1024F00018BF00F5F0404FEA300018BF41F000412E
:102500005FEA6C5C00F02980BCF1FF3F08BF40F03F
:1025100080407047130C06BF12044FF0100C4FF0B0
:10252000000C130E04BF12020CF1080C130F04BFB1
:1025300012010CF1040C930F04BF92000CF1020C79
:10254000D30F04BF52000CF1010C11464FF00002F2
:10255000A0F11F00A0EB0C00704711F0004F08BF66
:10256000704731F000413FF4D5AF0B0C06BF0904B2
:102570004FF0100C4FF0000C0B0E04BF09020CF1D1
:10258000080C0B0F04BF09010CF1040C8B0F04BFE6
:1025900089000CF1020CCB0F04BF49000CF1010CB7
:1025A000CCF1200322FA03F341EA030102FA0CF210
:1025B000A0EB0C0000F101007047000023F07F4702
:1025C00020F07F4C80EA030000F00040ACEB0703F2
:1025D00003F57C5303F1FF032DE9804909B44FEA69
:1025E000144324EA03484FEA154B25EA0B4E0FF239
:1025F000042606EB13273E7803FB0667C7F50007A2
:1026000007FB06F64FEAD64606F102064FEA5437B4
:1026100007FB066CCCF1005C4FEA1C472CEA074C28
:102620000CFB06F507FB06F404EB15464FEA96167D
:1026300049085FEA320234BF00204FF000404FEA01
:10264000D13706FB07FC4FEA1C4C0CFB0BF7D21BE7
:1026500003FB0CF761EB07010CFB0EF7B0EB074037
:1026600072EB17420CFB08F734BFA2EB0742B2EB48
:10267000074261EB17414FEA0C444FEA910706FB12
:1026800007FC4FEA1C4C0CFB0BF7B0EBC74072EB9E
:10269000573203FB0CF734BFA2EBC742B2EBC74281
:1026A00061EB57310CFB0EF7B0EBC70072EB5772C2
:1026B0000CFB08F734BFA2EBC702B2EBC70261EB19
:1026C00057714FEA816141EA92114FEA826242EA10
:1026D00090124FEA806004EBCC04039F4FEAD1379D
:1026E00006FB07FC4FEA1C4C0CFB0BF7D21B03FB51
:1026F0000CF761EB07010CFB0EF7B0EB074072EB38
:1027000017420CFB08F734BFA2EB0742B2EB0742BB
:1027100061EB17414FEA8C5504EB9C244FEA91077B
:1027200006FB07FC4FEA1C4C0CFB0BF7B0EBC74059
:1027300072EB573203FB0CF734BFA2EBC742B2EB8C
:10274000C74261EB57310CFB0EF7B0EBC70072EBE1
:1027500057720CFB08F734BFA2EBC702B2EBC702FB
:1027600061EB57714FEA816141EA92114FEA82624F
:1027700042EA90124FEA806015EB4C2544F10004C8
:102780004FEAD13706FB07FC4FEA1C4C0CFB0BF75A
:10279000D21B03FB0CF761EB07010CFB0EF7B0EB50
:1027A000074072EB17420CFB08F734BFA2EB07425D
:1027B000B2EB074261EB17414FEA813141EA9241A6
:1027C0004FEA823242EA90424FEA80304FEA0C767A
:1027D00015EB1C1544F1000448EA03434EEA0B488C
:1027E0004FF0000EB2EB080C71EB030724BF6246FA
:1027F00039464EEB0E0E4FF0000B00185241494186
:102800004BEB0B0BB2EB080C71EB03077BF1000BEE
:1028100024BF624639464EEB0E0E4FF0000B0018F7
:10282000524149414BEB0B0BB2EB080C71EB030728
:102830007BF1000B24BF624639464EEB0E0E51EA87
:10284000020718BF46F0010616EB0E7655F100029E
:1028500054F1000103D5BDE88901BDE80088BDE859
:102860008901BDE80048B619524141EB0101A3F1CD
:102870000103704780807F7E7D7C7B7A79787776D4
:1028800076757473727171706F6E6E6D6C6C6B6A4D
:102890006A696868676666656464636362616160EB
:1028A000605F5F5E5E5D5D5C5C5B5B5A5A59595868
:1028B00058575756565555555454535352525251D2
:1028C000515050504F4F4F4E4E4D4D4D4C4C4C4B28
:1028D0004B4B4A4A4A49494948484847474747466F
:1028E00046464545454444444443434343424242AB
:1028F000424141419C46002B30D477002BD04FEA17
:1029000037071CB503B44FF010004FF01001BAF1B7
:10291000000F06D0BCF1000FDCBF40F0080040F013
:1029200008014FF000000FBCBDE810400BF1010B97
:10293000BBF1010F08BF5FEA170722BF12F10102C6
:1029400011F101014FF0004143F1000300F000409C
:1029500043EA00007047F9D35708D0E746EA064635
:102960004FEA164613F1400F1FDD13F1200FDFBFB2
:1029700016430A46002120335B42BED0C3F1200734
:1029800046EA06464FEA164602FA07F746EA0706FF
:1029900022FA03F2C3F1200701FA07F742EA07021D
:1029A00021FA03F14FF00003A7E746EA020646EAE0
:1029B00006464FEA164646EA0106BCBF46EA064608
:1029C000360C4FF000034FF000024FF0000194E787
:1029D0002DE9804C70B49A46934691E8380007C8B8
:1029E00031EA400C48BF34EA430C03D5FFF7E6FD5B
:1029F000FFF780FFF0BCBDE8008C2DE9804C70B47F
:102A00009A46934691E8380007C810F0804F08BFF7
:102A100013F0804F03D100F005F8FFF76BFFF0BC17
:102A2000BDE8008C20F07F4723F07F4C80EA030054
:102A300000F0004007EB0C03A3F57C53A3F1FE0369
:102A400092F0000F00F0B38095F0000F00F0778057
:102A50002DE901494FEA114021EA00484FEA1446A6
:102A600024EA064700FB06FC08FB06F607FB08F80D
:102A700018EB06484CEB164C00FB07F718EB074821
:102A80004CEB17404FEA124B22EA0B4E4FEA154629
:102A900025EA06470BFB06FC0EFB06F607FB0EFEBF
:102AA0001EEB064E4CEB164C0BFB07F71EEB074ECE
:102AB0004CEB174B18EB0B0840F1000018EB0E0B1A
:102AC00058EB000840F100008F1A4FF000014FF062
:102AD00000063CBFC943661B14BFB5EB040C0021C4
:102AE0003CBFC943F61B4FEA174427EA04454FEAA7
:102AF0001C472CEA074C04FB076205FB07F70CFB9D
:102B000005F616EB074642EB174204FB0CFC16EBEE
:102B10000C4642EB1C421BEB060658EB02024141FD
:102B20004EEA8E0E46EA9E0601D5BDE80189B61929
:102B3000524141EB0101A3F10103BDE801894FEAD4
:102B4000144524EA05464FEA114721EA074C05FBE4
:102B500007F406FB07F70CFB06F111EB074144EB0A
:102B6000174405FB0CFC11EB0C4144EB1C444FEAF1
:102B7000124722EA074C05FB07F206FB07F70CFB9E
:102B800006F616EB074642EB174205FB0CFC16EB6C
:102B90000C4642EB1C456A1854F1000148BF7047CF
:102BA000B619524141EB0101A3F10103704795F0C1
:102BB000000F37D04FEA114221EA02464FEA14478C
:102BC00024EA074C02FB07F106FB07F70CFB06F4AF
:102BD00014EB074441EB174102FB0CFC14EB0C44D3
:102BE00041EB1C414FEA154725EA074C02FB07F56C
:102BF00006FB07F70CFB06F616EB074645EB1745F9
:102C000002FB0CFC16EB0C4645EB1C42121951F171
:102C1000000148BF7047B619524141EB0101A3F1D1
:102C2000010370474FEA144524EA05464FEA11476D
:102C300021EA074C05FB07F106FB07F70CFB06F240
:102C400012EB074241EB174105FB0CFC12EB0C4267
:102C500051EB1C414FF0000648BF7047921841EB02
:102C60000101A3F101037047490050EAC12018BFD8
:102C700004204A0D18BF40F0010040F2FF72B2EB91
:102C8000515F08BF40F00200012808BF05207047CF
:102C900030380A2801D20120704700207047000018
:102CA00010B500290AD00878002807D005487844D4
:102CB000FEF718FB002801D0002010BD0248784420
:102CC00010BD0000A20900009A09000010B50029FB
:102CD0000AD00878002807D005487844FEF702FBA0
:102CE000002801D0002010BD0248784410BD00002B
:102CF000920900008A09000021F0004201F000431F
:102D0000A2F16052B2F5801F28BFD2F17F6C0BD9BF
:102D10005FEA001C43EAC20242EB507018BF7047E2
:102D200028BF20F001007047B2F5801FBCBF1846D5
:102D300070474FEA410C1CF5001F02D2084600F014
:102D4000BDBB70B500F022FA00000089FFF7F6BFA6
:102D50004FF00040A0F58000704700002DE9C04111
:102D600030B4DFF8A4C23CEA111418BF3CEA1314D3
:102D700000F0ED801CEA111481EA030544EAD574E1
:102D800018BF1CEA131500F0C880A4EB050404F179
:102D90007F7404F500344FF0004545EAC12145EA4F
:102DA000C32341EA505143EA52534FEAC0204FEA4D
:102DB000C222994208BF904200F09D804FEA1365FD
:102DC0000FF24416765D4FEA134506FB05F7C7F18F
:102DD000807706FB07F74FEAD737A7FB03687642F1
:102DE000A7FB06CEC8F5803838BFA8F1010807FB5D
:102DF00008E6A6FB028C4FF0000EE6FB03CEDCF1EA
:102E0000000CCEF1004E38BFAEF1010EA6FB0C58FF
:102E10004FF00007E6FB0E87A1FB08C6A0FB07CE1C
:102E200016EB0E064FF0000545F10005E1FB0765C6
:102E300015F1E04E7EBFA4F580345FEA46066D4191
:102E400016F1800745F100054FEA172747EA0567A5
:102E50004FEA15254FEA0666A6F1DE46B6F1805F19
:102E600020D9384605EBC47124F0010C01EB0C119C
:102E7000BCF1FE6F02D8F0BCBDE8008124425CBF0B
:102E800001F5801E9EEAC47F02D4F0BCBDE800813B
:102E9000244200F13980A1F1C041F0BCBDE80041FD
:102EA00000F0C2B94FEAD02040EA41504FEAD121A8
:102EB0004FEAD22242EA43524FEAD323A7FB0286CB
:102EC00007FB036605FB02661EEA0E0F58BFA6EB62
:102ED0000056B6EB00564FEA520E4EEAC37E18EB90
:102EE0000E0E56EB530EBCD518EB02085E417F1C4C
:102EF00055F10005B5E74FF480154FF000074FF08E
:102F000000064FF00008ACE701F1C04101F00041BC
:102F10004FF00000F0BCBDE800810CEA131511EA87
:102F20000C1F00D00CE013EA0C1F00F026804FF0BD
:102F3000000081EA030101F00041F0BCBDE800811E
:102F4000F0BCBDE8004181EA030100F06DB9F0BCBE
:102F5000BDE8004170B500F019F900BF097EFC3EE4
:102F600000F007B84FF0000081EA030101F00041D2
:102F7000704781EA030100F057B9F0BCBDE8004199
:102F800022494FF000007047FFFDFBF9F7F5F4F21E
:102F9000F0EEEDEBE9E8E6E4E3E1E0DEDDDBDAD8F4
:102FA000D7D5D4D3D1D0CFCDCCCBCAC8C7C6C5C452
:102FB000C2C1C0BFBEBDBCBBBAB9B8B7B6B5B4B369
:102FC000B2B1B0AFAEADACABAAA9A8A8A7A6A5A454
:102FD000A3A3A2A1A09F9F9E9D9C9C9B9A99999818
:102FE0009797969595949393929191908F8F8E8EBB
:102FF0008D8C8C8B8B8A8989888887878685858448
:1030000084838382828181800000FF070000F87F33
:10301000B0FA80F310FA03F10AD0C3F11D0303F5EF
:1030200080634FEA03524FEA415002EBD1217047CF
:103030004FF000007047000070B5DFF848C11CEA8F
:10304000111E1EBF1CEA13159EEA0C0F95EA0C0F09
:1030500000F06F8081EA03044EEAD47EAE4421EA98
:103060004C1123EA4C1341F4801143F48013AEF168
:103070007F7EA1FB024CA0FB0365361955EB0C05C6
:10308000A1FB034C4CF10003A0FB021C16EB0C0649
:10309000654153F10003094218BF46F0010613F4DD
:1030A000007F0BD14FEA03314FEA053041EA155159
:1030B00040EA165034036FF003020AE04FEAC321DE
:1030C0004FEAC52041EA555140EA5650F4026FF0EC
:1030D000020202EB2E4201EB025585EACE710AD0C4
:1030E0005FEA440C18BF24F0004450F1000041F1A5
:1030F000000120EAD47040F2FE7C624500D270BD2F
:10310000A84214BF4FF080444FF04044002E08BF47
:103110000024BEF1806FA8BFA1F1C041BDE870409E
:1031200080F2828001F1C04101F000414FF00000C7
:1031300070470CEA13159EEA0C0F18BF95EA0C0FA6
:1031400006D081EA030E4FF000000EF0004170BD82
:1031500000F01CF88900013E00F007B800F009B843
:103160004FEA430C5FEA5C5C08D081EA030100F09F
:103170005BB84FEA410C5FEA5C5CF6D102494FF064
:10318000000070470000FF070000F87F0EF1020EFC
:103190002EF0030E5EF8046B364205D4012A43EB91
:1031A000030515F5001F12D8012841EB010C1CF591
:1031B000001F0CD80ED14FEAD17C0CEB4C0C0CF15B
:1031C000020C15F5001F08BF4CEBD37C04E04FF058
:1031D000080C01E04FEAD37C0CEB4C0526FA05F60F
:1031E00006F00706B6F1040C06D20EEB860CBDE81D
:1031F00070404CF0010C6047DFE80CF0090B020254
:103200004FF00041A1F500214FF0000070BD1946BC
:103210001046012851EB010418BFD4F5001484BFF7
:10322000002001F0004170BD0808A0F500114FEA30
:103230003101704743004FEAD30C4FEA3C0C434046
:103240001FBF40070CF1605113F0FE4F70471CF098
:10325000006F03D10CF00041002070470CF00043D8
:1032600043EA507040EACC0010B500F0E1F800BF2E
:10327000000000924FEA0001FFF7D6BF4FF0004177
:10328000A1F500214FF00000704710B500F034F8B0
:103290000CBF0120002010BD10B500F02DF814BFA8
:1032A0000120002010BD10B500F05AF88CBF01209D
:1032B000002010BD10B500F053F82CBF01200020F5
:1032C00010BD10B500F080F894BF0120002010BDA3
:1032D00010B500F079F834BF0120002010BD401077
:1032E00058BFC0F14040491058BFC1F14041814230
:1032F000EFF300807047000050EA010C00F11380EA
:103300001CF5000F58BFBCF5000F01D48842704770
:1033100007D710F5000F58BF11F5000F15D48842DC
:103320007047894270471CF5000F04D5BCF5000FAB
:10333000F7D5814270474FF0807C1CEB400F38BFBF
:103340001CEB410F01D28142704710B500F070F8BC
:10335000922449004FF000504FF08051FFF7BFBF5B
:1033600050EA010C00F113801CF5000F58BFBCF5AA
:10337000000F01D48842704707D710F5000F58BFDF
:1033800011F5000F15D488427047894270471CF52B
:10339000000F04D5BCF5000FF7D5814270474FF000
:1033A000807C1CEB400F38BF1CEB410F01D28142E7
:1033B000704710B500F03CF8922449004FF080505F
:1033C0004FF00051FFF78BBF50EA010C00F1138062
:1033D0001CF5000F58BFBCF5000F01D488427047A0
:1033E00007D710F5000F58BF11F5000F15D488420C
:1033F0007047894270471CF5000F04D5BCF5000FDB
:10340000F7D5814270474FF0807C1CEB400F38BFEE
:103410001CEB410F01D28142704710B500F008F853
:10342000922449004FF000504FF08051FFF757BFF2
:103430000EF1020E2EF0030E5EF8044B244204D46B
:103440004FEA4102B2F17F4F11D84FEA4003B3F186
:103450007F4F0CD80ED14FEAD07C0CEB4C0C0CF10A
:10346000020CB2F17F4F08BF4CEBD17C04E04FF06F
:10347000080C01E04FEAD17C0CEB4C0324FA03F476
:1034800004F00704B4F1040C06D20EEB840CBDE882
:1034900010404CF0010C6047DFE80CF00708020216
:1034A0004FF00040A0F5800010BD0846420018BF54
:1034B000D2F1807288BF00F0004010BDFF2141EAC8
:1034C000D050C0057047FDF717BBFDF74BBC00009F
:1034D0000000000000000000303132333435363750
:1034E0003839414243444546403058003031323348
:1034F0003435363738396162636465664030780048
:1035000004000008000000000000000200010000AC
:10351000103031323334353637383961626364659F
:1035200066787000303132333435363738394142BD
:10353000434445465850000002400000000000A0EF
:103540000000000005400000000000C8000000006E
:103550000C4000000000409C0000000019400000EA
:103560000020BCBE0000000034400000BFC91B8E1C
:1035700000000004B5400000504BCFD06607E2CFFA
:10358000010000006C4100003E8251AADFEEA7342A
:1035900001000000D9420000DCB5A0E23A301F97DC
:1035A000FFFFFFFFB4450000FD25A0C8E9A3C14F00
:1035B000FFFFFFFFFF3F0000000000800000000051
:1035C000FF3F000000000080000000000204060829
:1035D00000000000000000000102030406070809C3
:1035E00000000000010203040102030406070809A9
:1035F00048697A3A20252E3266202D2D2042616EB0
:1036000074204E6F3A202564202D2D2048697A2899
:103610004B6D293A20252E3266202D2D204D6178C4
:103620002048697A3A20252E3266206B6D0A000008
:103630007C3700080000002004000000280100087A
:103640008037000808000020D80600004401000868
:103650001C00000043000000F8FFFFFF0C0000000A
:103660000E0000000F0000002E00000010010000FE
:1036700043000000F8FFFFFF004040404040404052
:103680004040414141414140404040404040404035
:1036900040404040404040404005020202020202D9
:1036A0000202020202020202022020202020202028
:1036B000202020020202020202029090909090903C
:1036C00010101010101010101010101010101010FA
:1036D000101010100202020202028888888888886E
:1036E000080808080808080808080808080808085A
:1036F0000808080802020202400000000000000062
:1037000000000000000000000000000000000000B9
:1037100000000000000000000000000000000000A9
:103720000000000000000000000000000000000099
:103730000000000000000000000000000000000089
:103740000000000000000000000000000000000079
:103750000000000000000000000000000000000069
:103760000000000000000000000000000000000059
:1037700000000000000000000000000000A24A0459
:0400000508000235B8
:00000001FF
